:10008F00AA2EA92F805CE50814B4080050599000DF
:10009F00AB75F003A4C58325F0C583730200C302BB
:1000AF0000C90200CF0200D50200DB0200E102000E
:1000BF00E70200EDAA0AA90B8028AA0DA90E80223B
:1000CF00AA10A911801CAA13A9148016AA16A91781
:1000DF008010AA19A91A800AAA1CA91D8004AA1F98
:0C00EF00A9201202CE809F750801809AA3
:0500FB000330FF028F3D
:10028F00E4FDFCC3ED9FEC9E5015E4FBFA0BBB00A5
:0F029F00010ABA03F8BBDEF50DBD00010C80E4C7
:0102AE00222D
:08010000062AFF02C3FF02AF53
:0B02C300E4F5B175B230C2B4C2B52240
:1002AF008532828531837F327E001202D2AA2BA93A
:0402BF002C0202CE3D
:0B0108000921FF02D4FF02D7FF02DA3A
:0302D400D2B4227F
:0302D700C2B4228C
:0302DA00B2B42299
:10011300190801FF012FFF015BFF0187FF01B3FFF7
:0B01230001DFFF020BFF0237FF026349
:10012F00AA28A9291202CE8532828531837F647E67
:10013F00001202D2AA28A9291202CE853282853155
:0C014F00837F647E001202D27508022239
:10015B00AA28A9291202CE8532828531837FC87ED7
:10016B00001202D2AA28A9291202CE853282853129
:0C017B00837FC87E001202D275080322A8
:10018700AA28A9291202CE8532828531837F2C7E47
:10019700011202D2AA28A9291202CE8532828531FC
:0C01A700837F2C7E011202D27508042216
:1001B300AA28A9291202CE8532828531837F907EB7
:1001C300011202D2AA28A9291202CE8532828531D0
:0C01D300837F907E011202D27508052285
:1001DF00AA28A9291202CE8532828531837FF47E27
:1001EF00011202D2AA28A9291202CE8532828531A4
:0C01FF00837FF47E011202D275080622F4
:10020B00AA28A9291202CE8532828531837F587E96
:10021B00021202D2AA28A9291202CE853282853176
:0C022B00837F587E021202D27508072261
:10023700AA28A9291202CE8532828531837FBC7E06
:10024700021202D2AA28A9291202CE85328285314A
:0C025700837FBC7E021202D275080822D0
:10026300AA28A9291202CE8532828531837F207E76
:10027300031202D2AA28A9291202CE85328285311D
:0C028300837F207E031202D27508012246
:03000000020003F8
:0C000300787FE4F6D8FD75813202004AD7
:0602CE008A838982E473BB
:10000F0002008FE493A3F8E493A34003F68001F278
:10001F0008DFF48029E493A3F85407240CC8C333F2
:10002F00C4540F4420C8834004F456800146F6DFC1
:10003F00E4800B01020408102040809000FBE47E56
:10004F00019360BCA3FF543F30E509541FFEE493B6
:10005F00A360010ECF54C025E060A840B8E493A37D
:10006F00FAE493A3F8E493A3C8C582C8CAC583CAA8
:10007F00F0A3C8C582C8CAC583CADFE9DEE780BE60
:01012E0000D0
:00000001FF
